{
	"data": {
		"bytecode": {
			"linkReferences": {},
			"object": "608060405234801561001057600080fd5b50610d1e806100206000396000f3fe608060405234801561001057600080fd5b506004361061004c5760003560e01c8063111002aa1461005157806318e88f011461006d578063859c91861461009e578063e554482e146100ba575b600080fd5b61006b6004803603810190610066919061070c565b6100d8565b005b6100876004803603810190610082919061070c565b610232565b60405161009592919061091c565b60405180910390f35b6100b860048036038101906100b3919061070c565b610324565b005b6100c2610439565b6040516100cf9190610901565b60405180910390f35b6000600180549050905060005b6001805490508110156101b857826040516020016101039190610893565b604051602081830303815290604052805190602001206001828154811061012d5761012c610bed565b5b906000526020600020906002020160010160405160200161014e91906108aa565b6040516020818303038152906040528051906020012014156101a5576040517f08c379a000000000000000000000000000000000000000000000000000000000815260040161019c906108e1565b60405180910390fd5b80806101b090610b17565b9150506100e5565b506001604051806040016040528083806101d190610b17565b9450815260200184815250908060018154018082558091505060019003906000526020600020906002020160009091909190915060008201518160000155602082015181600101908051906020019061022b92919061052c565b5050505050565b60006060600061024184610446565b90506001818154811061025757610256610bed565b5b9060005260206000209060020201600001546001828154811061027d5761027c610bed565b5b906000526020600020906002020160010180805461029a90610ab4565b80601f01602080910402602001604051908101604052809291908181526020018280546102c690610ab4565b80156103135780601f106102e857610100808354040283529160200191610313565b820191906000526020600020905b8154815290600101906020018083116102f657829003601f168201915b505050505090509250925050915091565b600061032f82610446565b905060018054905081106103435750610436565b60008190505b6001808054905061035a9190610a34565b8110156103f0576001808261036f91906109de565b815481106103805761037f610bed565b5b9060005260206000209060020201600182815481106103a2576103a1610bed565b5b90600052602060002090600202016000820154816000015560018201816001019080546103ce90610ab4565b6103d99291906105b2565b5090505080806103e890610b17565b915050610349565b50600180548061040357610402610bbe565b5b6001900381819060005260206000209060020201600080820160009055600182016000610430919061063f565b50509055505b50565b6000600180549050905090565b6000805b6001805490508110156104eb57826040516020016104689190610893565b604051602081830303815290604052805190602001206001828154811061049257610491610bed565b5b90600052602060002090600202016001016040516020016104b391906108aa565b6040516020818303038152906040528051906020012014156104d85780915050610527565b80806104e390610b17565b91505061044a565b506040517f08c379a000000000000000000000000000000000000000000000000000000000815260040161051e906108c1565b60405180910390fd5b919050565b82805461053890610ab4565b90600052602060002090601f01602090048101928261055a57600085556105a1565b82601f1061057357805160ff19168380011785556105a1565b828001600101855582156105a1579182015b828111156105a0578251825591602001919060010190610585565b5b5090506105ae919061067f565b5090565b8280546105be90610ab4565b90600052602060002090601f0160209004810192826105e0576000855561062e565b82601f106105f1578054855561062e565b8280016001018555821561062e57600052602060002091601f016020900482015b8281111561062d578254825591600101919060010190610612565b5b50905061063b919061067f565b5090565b50805461064b90610ab4565b6000825580601f1061065d575061067c565b601f01602090049060005260206000209081019061067b919061067f565b5b50565b5b80821115610698576000816000905550600101610680565b5090565b60006106af6106aa84610971565b61094c565b9050828152602081018484840111156106cb576106ca610c50565b5b6106d6848285610a72565b509392505050565b600082601f8301126106f3576106f2610c4b565b5b813561070384826020860161069c565b91505092915050565b60006020828403121561072257610721610c5a565b5b600082013567ffffffffffffffff8111156107405761073f610c55565b5b61074c848285016106de565b91505092915050565b6000610760826109b7565b61076a81856109c2565b935061077a818560208601610a81565b61078381610c5f565b840191505092915050565b6000610799826109b7565b6107a381856109d3565b93506107b3818560208601610a81565b80840191505092915050565b600081546107cc81610ab4565b6107d681866109d3565b945060018216600081146107f1576001811461080257610835565b60ff19831686528186019350610835565b61080b856109a2565b60005b8381101561082d5781548189015260018201915060208101905061080e565b838801955050505b50505092915050565b600061084b600e836109c2565b915061085682610c70565b602082019050919050565b600061086e6029836109c2565b915061087982610c99565b604082019050919050565b61088d81610a68565b82525050565b600061089f828461078e565b915081905092915050565b60006108b682846107bf565b915081905092915050565b600060208201905081810360008301526108da8161083e565b9050919050565b600060208201905081810360008301526108fa81610861565b9050919050565b60006020820190506109166000830184610884565b92915050565b60006040820190506109316000830185610884565b81810360208301526109438184610755565b90509392505050565b6000610956610967565b90506109628282610ae6565b919050565b6000604051905090565b600067ffffffffffffffff82111561098c5761098b610c1c565b5b61099582610c5f565b9050602081019050919050565b60008190508160005260206000209050919050565b600081519050919050565b600082825260208201905092915050565b600081905092915050565b60006109e982610a68565b91506109f483610a68565b9250827fffffffffffffffffffffffffffffffffffffffffffffffffffffffffffffffff03821115610a2957610a28610b60565b5b828201905092915050565b6000610a3f82610a68565b9150610a4a83610a68565b925082821015610a5d57610a5c610b60565b5b828203905092915050565b6000819050919050565b82818337600083830152505050565b60005b83811015610a9f578082015181840152602081019050610a84565b83811115610aae576000848401525b50505050565b60006002820490506001821680610acc57607f821691505b60208210811415610ae057610adf610b8f565b5b50919050565b610aef82610c5f565b810181811067ffffffffffffffff82111715610b0e57610b0d610c1c565b5b80604052505050565b6000610b2282610a68565b91507fffffffffffffffffffffffffffffffffffffffffffffffffffffffffffffffff821415610b5557610b54610b60565b5b600182019050919050565b7f4e487b7100000000000000000000000000000000000000000000000000000000600052601160045260246000fd5b7f4e487b7100000000000000000000000000000000000000000000000000000000600052602260045260246000fd5b7f4e487b7100000000000000000000000000000000000000000000000000000000600052603160045260246000fd5b7f4e487b7100000000000000000000000000000000000000000000000000000000600052603260045260246000fd5b7f4e487b7100000000000000000000000000000000000000000000000000000000600052604160045260246000fd5b600080fd5b600080fd5b600080fd5b600080fd5b6000601f19601f8301169050919050565b7f7461736b206e6f7420666f756e64000000000000000000000000000000000000600082015250565b7f63616e6e6f7420637261746520616e6f74686572207461736b2077697468207360008201527f616d65206e616d6521000000000000000000000000000000000000000000000060208201525056fea2646970667358221220dc48abf9589e5a5a189b0a23c2cc5327a18e5405a44ad1565d81149437862dc964736f6c63430008060033",
			"opcodes": "PUSH1 0x80 PUSH1 0x40 MSTORE CALLVALUE DUP1 ISZERO PUSH2 0x10 JUMPI PUSH1 0x0 DUP1 REVERT JUMPDEST POP PUSH2 0xD1E DUP1 PUSH2 0x20 PUSH1 0x0 CODECOPY PUSH1 0x0 RETURN INVALID PUSH1 0x80 PUSH1 0x40 MSTORE CALLVALUE DUP1 ISZERO PUSH2 0x10 JUMPI PUSH1 0x0 DUP1 REVERT JUMPDEST POP PUSH1 0x4 CALLDATASIZE LT PUSH2 0x4C JUMPI PUSH1 0x0 CALLDATALOAD PUSH1 0xE0 SHR DUP1 PUSH4 0x111002AA EQ PUSH2 0x51 JUMPI DUP1 PUSH4 0x18E88F01 EQ PUSH2 0x6D JUMPI DUP1 PUSH4 0x859C9186 EQ PUSH2 0x9E JUMPI DUP1 PUSH4 0xE554482E EQ PUSH2 0xBA JUMPI JUMPDEST PUSH1 0x0 DUP1 REVERT JUMPDEST PUSH2 0x6B PUSH1 0x4 DUP1 CALLDATASIZE SUB DUP2 ADD SWAP1 PUSH2 0x66 SWAP2 SWAP1 PUSH2 0x70C JUMP JUMPDEST PUSH2 0xD8 JUMP JUMPDEST STOP JUMPDEST PUSH2 0x87 PUSH1 0x4 DUP1 CALLDATASIZE SUB DUP2 ADD SWAP1 PUSH2 0x82 SWAP2 SWAP1 PUSH2 0x70C JUMP JUMPDEST PUSH2 0x232 JUMP JUMPDEST PUSH1 0x40 MLOAD PUSH2 0x95 SWAP3 SWAP2 SWAP1 PUSH2 0x91C JUMP JUMPDEST PUSH1 0x40 MLOAD DUP1 SWAP2 SUB SWAP1 RETURN JUMPDEST PUSH2 0xB8 PUSH1 0x4 DUP1 CALLDATASIZE SUB DUP2 ADD SWAP1 PUSH2 0xB3 SWAP2 SWAP1 PUSH2 0x70C JUMP JUMPDEST PUSH2 0x324 JUMP JUMPDEST STOP JUMPDEST PUSH2 0xC2 PUSH2 0x439 JUMP JUMPDEST PUSH1 0x40 MLOAD PUSH2 0xCF SWAP2 SWAP1 PUSH2 0x901 JUMP JUMPDEST PUSH1 0x40 MLOAD DUP1 SWAP2 SUB SWAP1 RETURN JUMPDEST PUSH1 0x0 PUSH1 0x1 DUP1 SLOAD SWAP1 POP SWAP1 POP PUSH1 0x0 JUMPDEST PUSH1 0x1 DUP1 SLOAD SWAP1 POP DUP2 LT ISZERO PUSH2 0x1B8 JUMPI DUP3 PUSH1 0x40 MLOAD PUSH1 0x20 ADD PUSH2 0x103 SWAP2 SWAP1 PUSH2 0x893 JUMP JUMPDEST PUSH1 0x40 MLOAD PUSH1 0x20 DUP2 DUP4 SUB SUB DUP2 MSTORE SWAP1 PUSH1 0x40 MSTORE DUP1 MLOAD SWAP1 PUSH1 0x20 ADD KECCAK256 PUSH1 0x1 DUP3 DUP2 SLOAD DUP2 LT PUSH2 0x12D JUMPI PUSH2 0x12C PUSH2 0xBED JUMP JUMPDEST JUMPDEST SWAP1 PUSH1 0x0 MSTORE PUSH1 0x20 PUSH1 0x0 KECCAK256 SWAP1 PUSH1 0x2 MUL ADD PUSH1 0x1 ADD PUSH1 0x40 MLOAD PUSH1 0x20 ADD PUSH2 0x14E SWAP2 SWAP1 PUSH2 0x8AA JUMP JUMPDEST PUSH1 0x40 MLOAD PUSH1 0x20 DUP2 DUP4 SUB SUB DUP2 MSTORE SWAP1 PUSH1 0x40 MSTORE DUP1 MLOAD SWAP1 PUSH1 0x20 ADD KECCAK256 EQ ISZERO PUSH2 0x1A5 JUMPI PUSH1 0x40 MLOAD PUSH32 0x8C379A000000000000000000000000000000000000000000000000000000000 DUP2 MSTORE PUSH1 0x4 ADD PUSH2 0x19C SWAP1 PUSH2 0x8E1 JUMP JUMPDEST PUSH1 0x40 MLOAD DUP1 SWAP2 SUB SWAP1 REVERT JUMPDEST DUP1 DUP1 PUSH2 0x1B0 SWAP1 PUSH2 0xB17 JUMP JUMPDEST SWAP2 POP POP PUSH2 0xE5 JUMP JUMPDEST POP PUSH1 0x1 PUSH1 0x40 MLOAD DUP1 PUSH1 0x40 ADD PUSH1 0x40 MSTORE DUP1 DUP4 DUP1 PUSH2 0x1D1 SWAP1 PUSH2 0xB17 JUMP JUMPDEST SWAP5 POP DUP2 MSTORE PUSH1 0x20 ADD DUP5 DUP2 MSTORE POP SWAP1 DUP1 PUSH1 0x1 DUP2 SLOAD ADD DUP1 DUP3 SSTORE DUP1 SWAP2 POP POP PUSH1 0x1 SWAP1 SUB SWAP1 PUSH1 0x0 MSTORE PUSH1 0x20 PUSH1 0x0 KECCAK256 SWAP1 PUSH1 0x2 MUL ADD PUSH1 0x0 SWAP1 SWAP2 SWAP1 SWAP2 SWAP1 SWAP2 POP PUSH1 0x0 DUP3 ADD MLOAD DUP2 PUSH1 0x0 ADD SSTORE PUSH1 0x20 DUP3 ADD MLOAD DUP2 PUSH1 0x1 ADD SWAP1 DUP1 MLOAD SWAP1 PUSH1 0x20 ADD SWAP1 PUSH2 0x22B SWAP3 SWAP2 SWAP1 PUSH2 0x52C JUMP JUMPDEST POP POP POP POP POP JUMP JUMPDEST PUSH1 0x0 PUSH1 0x60 PUSH1 0x0 PUSH2 0x241 DUP5 PUSH2 0x446 JUMP JUMPDEST SWAP1 POP PUSH1 0x1 DUP2 DUP2 SLOAD DUP2 LT PUSH2 0x257 JUMPI PUSH2 0x256 PUSH2 0xBED JUMP JUMPDEST JUMPDEST SWAP1 PUSH1 0x0 MSTORE PUSH1 0x20 PUSH1 0x0 KECCAK256 SWAP1 PUSH1 0x2 MUL ADD PUSH1 0x0 ADD SLOAD PUSH1 0x1 DUP3 DUP2 SLOAD DUP2 LT PUSH2 0x27D JUMPI PUSH2 0x27C PUSH2 0xBED JUMP JUMPDEST JUMPDEST SWAP1 PUSH1 0x0 MSTORE PUSH1 0x20 PUSH1 0x0 KECCAK256 SWAP1 PUSH1 0x2 MUL ADD PUSH1 0x1 ADD DUP1 DUP1 SLOAD PUSH2 0x29A SWAP1 PUSH2 0xAB4 JUMP JUMPDEST DUP1 PUSH1 0x1F ADD PUSH1 0x20 DUP1 SWAP2 DIV MUL PUSH1 0x20 ADD PUSH1 0x40 MLOAD SWAP1 DUP2 ADD PUSH1 0x40 MSTORE DUP1 SWAP3 SWAP2 SWAP1 DUP2 DUP2 MSTORE PUSH1 0x20 ADD DUP3 DUP1 SLOAD PUSH2 0x2C6 SWAP1 PUSH2 0xAB4 JUMP JUMPDEST DUP1 ISZERO PUSH2 0x313 JUMPI DUP1 PUSH1 0x1F LT PUSH2 0x2E8 JUMPI PUSH2 0x100 DUP1 DUP4 SLOAD DIV MUL DUP4 MSTORE SWAP2 PUSH1 0x20 ADD SWAP2 PUSH2 0x313 JUMP JUMPDEST DUP3 ADD SWAP2 SWAP1 PUSH1 0x0 MSTORE PUSH1 0x20 PUSH1 0x0 KECCAK256 SWAP1 JUMPDEST DUP2 SLOAD DUP2 MSTORE SWAP1 PUSH1 0x1 ADD SWAP1 PUSH1 0x20 ADD DUP1 DUP4 GT PUSH2 0x2F6 JUMPI DUP3 SWAP1 SUB PUSH1 0x1F AND DUP3 ADD SWAP2 JUMPDEST POP POP POP POP POP SWAP1 POP SWAP3 POP SWAP3 POP POP SWAP2 POP SWAP2 JUMP JUMPDEST PUSH1 0x0 PUSH2 0x32F DUP3 PUSH2 0x446 JUMP JUMPDEST SWAP1 POP PUSH1 0x1 DUP1 SLOAD SWAP1 POP DUP2 LT PUSH2 0x343 JUMPI POP PUSH2 0x436 JUMP JUMPDEST PUSH1 0x0 DUP2 SWAP1 POP JUMPDEST PUSH1 0x1 DUP1 DUP1 SLOAD SWAP1 POP PUSH2 0x35A SWAP2 SWAP1 PUSH2 0xA34 JUMP JUMPDEST DUP2 LT ISZERO PUSH2 0x3F0 JUMPI PUSH1 0x1 DUP1 DUP3 PUSH2 0x36F SWAP2 SWAP1 PUSH2 0x9DE JUMP JUMPDEST DUP2 SLOAD DUP2 LT PUSH2 0x380 JUMPI PUSH2 0x37F PUSH2 0xBED JUMP JUMPDEST JUMPDEST SWAP1 PUSH1 0x0 MSTORE PUSH1 0x20 PUSH1 0x0 KECCAK256 SWAP1 PUSH1 0x2 MUL ADD PUSH1 0x1 DUP3 DUP2 SLOAD DUP2 LT PUSH2 0x3A2 JUMPI PUSH2 0x3A1 PUSH2 0xBED JUMP JUMPDEST JUMPDEST SWAP1 PUSH1 0x0 MSTORE PUSH1 0x20 PUSH1 0x0 KECCAK256 SWAP1 PUSH1 0x2 MUL ADD PUSH1 0x0 DUP3 ADD SLOAD DUP2 PUSH1 0x0 ADD SSTORE PUSH1 0x1 DUP3 ADD DUP2 PUSH1 0x1 ADD SWAP1 DUP1 SLOAD PUSH2 0x3CE SWAP1 PUSH2 0xAB4 JUMP JUMPDEST PUSH2 0x3D9 SWAP3 SWAP2 SWAP1 PUSH2 0x5B2 JUMP JUMPDEST POP SWAP1 POP POP DUP1 DUP1 PUSH2 0x3E8 SWAP1 PUSH2 0xB17 JUMP JUMPDEST SWAP2 POP POP PUSH2 0x349 JUMP JUMPDEST POP PUSH1 0x1 DUP1 SLOAD DUP1 PUSH2 0x403 JUMPI PUSH2 0x402 PUSH2 0xBBE JUMP JUMPDEST JUMPDEST PUSH1 0x1 SWAP1 SUB DUP2 DUP2 SWAP1 PUSH1 0x0 MSTORE PUSH1 0x20 PUSH1 0x0 KECCAK256 SWAP1 PUSH1 0x2 MUL ADD PUSH1 0x0 DUP1 DUP3 ADD PUSH1 0x0 SWAP1 SSTORE PUSH1 0x1 DUP3 ADD PUSH1 0x0 PUSH2 0x430 SWAP2 SWAP1 PUSH2 0x63F JUMP JUMPDEST POP POP SWAP1 SSTORE POP JUMPDEST POP JUMP JUMPDEST PUSH1 0x0 PUSH1 0x1 DUP1 SLOAD SWAP1 POP SWAP1 POP SWAP1 JUMP JUMPDEST PUSH1 0x0 DUP1 JUMPDEST PUSH1 0x1 DUP1 SLOAD SWAP1 POP DUP2 LT ISZERO PUSH2 0x4EB JUMPI DUP3 PUSH1 0x40 MLOAD PUSH1 0x20 ADD PUSH2 0x468 SWAP2 SWAP1 PUSH2 0x893 JUMP JUMPDEST PUSH1 0x40 MLOAD PUSH1 0x20 DUP2 DUP4 SUB SUB DUP2 MSTORE SWAP1 PUSH1 0x40 MSTORE DUP1 MLOAD SWAP1 PUSH1 0x20 ADD KECCAK256 PUSH1 0x1 DUP3 DUP2 SLOAD DUP2 LT PUSH2 0x492 JUMPI PUSH2 0x491 PUSH2 0xBED JUMP JUMPDEST JUMPDEST SWAP1 PUSH1 0x0 MSTORE PUSH1 0x20 PUSH1 0x0 KECCAK256 SWAP1 PUSH1 0x2 MUL ADD PUSH1 0x1 ADD PUSH1 0x40 MLOAD PUSH1 0x20 ADD PUSH2 0x4B3 SWAP2 SWAP1 PUSH2 0x8AA JUMP JUMPDEST PUSH1 0x40 MLOAD PUSH1 0x20 DUP2 DUP4 SUB SUB DUP2 MSTORE SWAP1 PUSH1 0x40 MSTORE DUP1 MLOAD SWAP1 PUSH1 0x20 ADD KECCAK256 EQ ISZERO PUSH2 0x4D8 JUMPI DUP1 SWAP2 POP POP PUSH2 0x527 JUMP JUMPDEST DUP1 DUP1 PUSH2 0x4E3 SWAP1 PUSH2 0xB17 JUMP JUMPDEST SWAP2 POP POP PUSH2 0x44A JUMP JUMPDEST POP PUSH1 0x40 MLOAD PUSH32 0x8C379A000000000000000000000000000000000000000000000000000000000 DUP2 MSTORE PUSH1 0x4 ADD PUSH2 0x51E SWAP1 PUSH2 0x8C1 JUMP JUMPDEST PUSH1 0x40 MLOAD DUP1 SWAP2 SUB SWAP1 REVERT JUMPDEST SWAP2 SWAP1 POP JUMP JUMPDEST DUP3 DUP1 SLOAD PUSH2 0x538 SWAP1 PUSH2 0xAB4 JUMP JUMPDEST SWAP1 PUSH1 0x0 MSTORE PUSH1 0x20 PUSH1 0x0 KECCAK256 SWAP1 PUSH1 0x1F ADD PUSH1 0x20 SWAP1 DIV DUP2 ADD SWAP3 DUP3 PUSH2 0x55A JUMPI PUSH1 0x0 DUP6 SSTORE PUSH2 0x5A1 JUMP JUMPDEST DUP3 PUSH1 0x1F LT PUSH2 0x573 JUMPI DUP1 MLOAD PUSH1 0xFF NOT AND DUP4 DUP1 ADD OR DUP6 SSTORE PUSH2 0x5A1 JUMP JUMPDEST DUP3 DUP1 ADD PUSH1 0x1 ADD DUP6 SSTORE DUP3 ISZERO PUSH2 0x5A1 JUMPI SWAP2 DUP3 ADD JUMPDEST DUP3 DUP2 GT ISZERO PUSH2 0x5A0 JUMPI DUP3 MLOAD DUP3 SSTORE SWAP2 PUSH1 0x20 ADD SWAP2 SWAP1 PUSH1 0x1 ADD SWAP1 PUSH2 0x585 JUMP JUMPDEST JUMPDEST POP SWAP1 POP PUSH2 0x5AE SWAP2 SWAP1 PUSH2 0x67F JUMP JUMPDEST POP SWAP1 JUMP JUMPDEST DUP3 DUP1 SLOAD PUSH2 0x5BE SWAP1 PUSH2 0xAB4 JUMP JUMPDEST SWAP1 PUSH1 0x0 MSTORE PUSH1 0x20 PUSH1 0x0 KECCAK256 SWAP1 PUSH1 0x1F ADD PUSH1 0x20 SWAP1 DIV DUP2 ADD SWAP3 DUP3 PUSH2 0x5E0 JUMPI PUSH1 0x0 DUP6 SSTORE PUSH2 0x62E JUMP JUMPDEST DUP3 PUSH1 0x1F LT PUSH2 0x5F1 JUMPI DUP1 SLOAD DUP6 SSTORE PUSH2 0x62E JUMP JUMPDEST DUP3 DUP1 ADD PUSH1 0x1 ADD DUP6 SSTORE DUP3 ISZERO PUSH2 0x62E JUMPI PUSH1 0x0 MSTORE PUSH1 0x20 PUSH1 0x0 KECCAK256 SWAP2 PUSH1 0x1F ADD PUSH1 0x20 SWAP1 DIV DUP3 ADD JUMPDEST DUP3 DUP2 GT ISZERO PUSH2 0x62D JUMPI DUP3 SLOAD DUP3 SSTORE SWAP2 PUSH1 0x1 ADD SWAP2 SWAP1 PUSH1 0x1 ADD SWAP1 PUSH2 0x612 JUMP JUMPDEST JUMPDEST POP SWAP1 POP PUSH2 0x63B SWAP2 SWAP1 PUSH2 0x67F JUMP JUMPDEST POP SWAP1 JUMP JUMPDEST POP DUP1 SLOAD PUSH2 0x64B SWAP1 PUSH2 0xAB4 JUMP JUMPDEST PUSH1 0x0 DUP3 SSTORE DUP1 PUSH1 0x1F LT PUSH2 0x65D JUMPI POP PUSH2 0x67C JUMP JUMPDEST PUSH1 0x1F ADD PUSH1 0x20 SWAP1 DIV SWAP1 PUSH1 0x0 MSTORE PUSH1 0x20 PUSH1 0x0 KECCAK256 SWAP1 DUP2 ADD SWAP1 PUSH2 0x67B SWAP2 SWAP1 PUSH2 0x67F JUMP JUMPDEST JUMPDEST POP JUMP JUMPDEST JUMPDEST DUP1 DUP3 GT ISZERO PUSH2 0x698 JUMPI PUSH1 0x0 DUP2 PUSH1 0x0 SWAP1 SSTORE POP PUSH1 0x1 ADD PUSH2 0x680 JUMP JUMPDEST POP SWAP1 JUMP JUMPDEST PUSH1 0x0 PUSH2 0x6AF PUSH2 0x6AA DUP5 PUSH2 0x971 JUMP JUMPDEST PUSH2 0x94C JUMP JUMPDEST SWAP1 POP DUP3 DUP2 MSTORE PUSH1 0x20 DUP2 ADD DUP5 DUP5 DUP5 ADD GT ISZERO PUSH2 0x6CB JUMPI PUSH2 0x6CA PUSH2 0xC50 JUMP JUMPDEST JUMPDEST PUSH2 0x6D6 DUP5 DUP3 DUP6 PUSH2 0xA72 JUMP JUMPDEST POP SWAP4 SWAP3 POP POP POP JUMP JUMPDEST PUSH1 0x0 DUP3 PUSH1 0x1F DUP4 ADD SLT PUSH2 0x6F3 JUMPI PUSH2 0x6F2 PUSH2 0xC4B JUMP JUMPDEST JUMPDEST DUP2 CALLDATALOAD PUSH2 0x703 DUP5 DUP3 PUSH1 0x20 DUP7 ADD PUSH2 0x69C JUMP JUMPDEST SWAP2 POP POP SWAP3 SWAP2 POP POP JUMP JUMPDEST PUSH1 0x0 PUSH1 0x20 DUP3 DUP5 SUB SLT ISZERO PUSH2 0x722 JUMPI PUSH2 0x721 PUSH2 0xC5A JUMP JUMPDEST JUMPDEST PUSH1 0x0 DUP3 ADD CALLDATALOAD PUSH8 0xFFFFFFFFFFFFFFFF DUP2 GT ISZERO PUSH2 0x740 JUMPI PUSH2 0x73F PUSH2 0xC55 JUMP JUMPDEST JUMPDEST PUSH2 0x74C DUP5 DUP3 DUP6 ADD PUSH2 0x6DE JUMP JUMPDEST SWAP2 POP POP SWAP3 SWAP2 POP POP JUMP JUMPDEST PUSH1 0x0 PUSH2 0x760 DUP3 PUSH2 0x9B7 JUMP JUMPDEST PUSH2 0x76A DUP2 DUP6 PUSH2 0x9C2 JUMP JUMPDEST SWAP4 POP PUSH2 0x77A DUP2 DUP6 PUSH1 0x20 DUP7 ADD PUSH2 0xA81 JUMP JUMPDEST PUSH2 0x783 DUP2 PUSH2 0xC5F JUMP JUMPDEST DUP5 ADD SWAP2 POP POP SWAP3 SWAP2 POP POP JUMP JUMPDEST PUSH1 0x0 PUSH2 0x799 DUP3 PUSH2 0x9B7 JUMP JUMPDEST PUSH2 0x7A3 DUP2 DUP6 PUSH2 0x9D3 JUMP JUMPDEST SWAP4 POP PUSH2 0x7B3 DUP2 DUP6 PUSH1 0x20 DUP7 ADD PUSH2 0xA81 JUMP JUMPDEST DUP1 DUP5 ADD SWAP2 POP POP SWAP3 SWAP2 POP POP JUMP JUMPDEST PUSH1 0x0 DUP2 SLOAD PUSH2 0x7CC DUP2 PUSH2 0xAB4 JUMP JUMPDEST PUSH2 0x7D6 DUP2 DUP7 PUSH2 0x9D3 JUMP JUMPDEST SWAP5 POP PUSH1 0x1 DUP3 AND PUSH1 0x0 DUP2 EQ PUSH2 0x7F1 JUMPI PUSH1 0x1 DUP2 EQ PUSH2 0x802 JUMPI PUSH2 0x835 JUMP JUMPDEST PUSH1 0xFF NOT DUP4 AND DUP7 MSTORE DUP2 DUP7 ADD SWAP4 POP PUSH2 0x835 JUMP JUMPDEST PUSH2 0x80B DUP6 PUSH2 0x9A2 JUMP JUMPDEST PUSH1 0x0 JUMPDEST DUP4 DUP2 LT ISZERO PUSH2 0x82D JUMPI DUP2 SLOAD DUP2 DUP10 ADD MSTORE PUSH1 0x1 DUP3 ADD SWAP2 POP PUSH1 0x20 DUP2 ADD SWAP1 POP PUSH2 0x80E JUMP JUMPDEST DUP4 DUP9 ADD SWAP6 POP POP POP JUMPDEST POP POP POP SWAP3 SWAP2 POP POP JUMP JUMPDEST PUSH1 0x0 PUSH2 0x84B PUSH1 0xE DUP4 PUSH2 0x9C2 JUMP JUMPDEST SWAP2 POP PUSH2 0x856 DUP3 PUSH2 0xC70 JUMP JUMPDEST PUSH1 0x20 DUP3 ADD SWAP1 POP SWAP2 SWAP1 POP JUMP JUMPDEST PUSH1 0x0 PUSH2 0x86E PUSH1 0x29 DUP4 PUSH2 0x9C2 JUMP JUMPDEST SWAP2 POP PUSH2 0x879 DUP3 PUSH2 0xC99 JUMP JUMPDEST PUSH1 0x40 DUP3 ADD SWAP1 POP SWAP2 SWAP1 POP JUMP JUMPDEST PUSH2 0x88D DUP2 PUSH2 0xA68 JUMP JUMPDEST DUP3 MSTORE POP POP JUMP JUMPDEST PUSH1 0x0 PUSH2 0x89F DUP3 DUP5 PUSH2 0x78E JUMP JUMPDEST SWAP2 POP DUP2 SWAP1 POP SWAP3 SWAP2 POP POP JUMP JUMPDEST PUSH1 0x0 PUSH2 0x8B6 DUP3 DUP5 PUSH2 0x7BF JUMP JUMPDEST SWAP2 POP DUP2 SWAP1 POP SWAP3 SWAP2 POP POP JUMP JUMPDEST PUSH1 0x0 PUSH1 0x20 DUP3 ADD SWAP1 POP DUP2 DUP2 SUB PUSH1 0x0 DUP4 ADD MSTORE PUSH2 0x8DA DUP2 PUSH2 0x83E JUMP JUMPDEST SWAP1 POP SWAP2 SWAP1 POP JUMP JUMPDEST PUSH1 0x0 PUSH1 0x20 DUP3 ADD SWAP1 POP DUP2 DUP2 SUB PUSH1 0x0 DUP4 ADD MSTORE PUSH2 0x8FA DUP2 PUSH2 0x861 JUMP JUMPDEST SWAP1 POP SWAP2 SWAP1 POP JUMP JUMPDEST PUSH1 0x0 PUSH1 0x20 DUP3 ADD SWAP1 POP PUSH2 0x916 PUSH1 0x0 DUP4 ADD DUP5 PUSH2 0x884 JUMP JUMPDEST SWAP3 SWAP2 POP POP JUMP JUMPDEST PUSH1 0x0 PUSH1 0x40 DUP3 ADD SWAP1 POP PUSH2 0x931 PUSH1 0x0 DUP4 ADD DUP6 PUSH2 0x884 JUMP JUMPDEST DUP2 DUP2 SUB PUSH1 0x20 DUP4 ADD MSTORE PUSH2 0x943 DUP2 DUP5 PUSH2 0x755 JUMP JUMPDEST SWAP1 POP SWAP4 SWAP3 POP POP POP JUMP JUMPDEST PUSH1 0x0 PUSH2 0x956 PUSH2 0x967 JUMP JUMPDEST SWAP1 POP PUSH2 0x962 DUP3 DUP3 PUSH2 0xAE6 JUMP JUMPDEST SWAP2 SWAP1 POP JUMP JUMPDEST PUSH1 0x0 PUSH1 0x40 MLOAD SWAP1 POP SWAP1 JUMP JUMPDEST PUSH1 0x0 PUSH8 0xFFFFFFFFFFFFFFFF DUP3 GT ISZERO PUSH2 0x98C JUMPI PUSH2 0x98B PUSH2 0xC1C JUMP JUMPDEST JUMPDEST PUSH2 0x995 DUP3 PUSH2 0xC5F JUMP JUMPDEST SWAP1 POP PUSH1 0x20 DUP2 ADD SWAP1 POP SWAP2 SWAP1 POP JUMP JUMPDEST PUSH1 0x0 DUP2 SWAP1 POP DUP2 PUSH1 0x0 MSTORE PUSH1 0x20 PUSH1 0x0 KECCAK256 SWAP1 POP SWAP2 SWAP1 POP JUMP JUMPDEST PUSH1 0x0 DUP2 MLOAD SWAP1 POP SWAP2 SWAP1 POP JUMP JUMPDEST PUSH1 0x0 DUP3 DUP3 MSTORE PUSH1 0x20 DUP3 ADD SWAP1 POP SWAP3 SWAP2 POP POP JUMP JUMPDEST PUSH1 0x0 DUP2 SWAP1 POP SWAP3 SWAP2 POP POP JUMP JUMPDEST PUSH1 0x0 PUSH2 0x9E9 DUP3 PUSH2 0xA68 JUMP JUMPDEST SWAP2 POP PUSH2 0x9F4 DUP4 PUSH2 0xA68 JUMP JUMPDEST SWAP3 POP DUP3 PUSH32 0xFFFFFFFFFFFFFFFFFFFFFFFFFFFFFFFFFFFFFFFFFFFFFFFFFFFFFFFFFFFFFFFF SUB DUP3 GT ISZERO PUSH2 0xA29 JUMPI PUSH2 0xA28 PUSH2 0xB60 JUMP JUMPDEST JUMPDEST DUP3 DUP3 ADD SWAP1 POP SWAP3 SWAP2 POP POP JUMP JUMPDEST PUSH1 0x0 PUSH2 0xA3F DUP3 PUSH2 0xA68 JUMP JUMPDEST SWAP2 POP PUSH2 0xA4A DUP4 PUSH2 0xA68 JUMP JUMPDEST SWAP3 POP DUP3 DUP3 LT ISZERO PUSH2 0xA5D JUMPI PUSH2 0xA5C PUSH2 0xB60 JUMP JUMPDEST JUMPDEST DUP3 DUP3 SUB SWAP1 POP SWAP3 SWAP2 POP POP JUMP JUMPDEST PUSH1 0x0 DUP2 SWAP1 POP SWAP2 SWAP1 POP JUMP JUMPDEST DUP3 DUP2 DUP4 CALLDATACOPY PUSH1 0x0 DUP4 DUP4 ADD MSTORE POP POP POP JUMP JUMPDEST PUSH1 0x0 JUMPDEST DUP4 DUP2 LT ISZERO PUSH2 0xA9F JUMPI DUP1 DUP3 ADD MLOAD DUP2 DUP5 ADD MSTORE PUSH1 0x20 DUP2 ADD SWAP1 POP PUSH2 0xA84 JUMP JUMPDEST DUP4 DUP2 GT ISZERO PUSH2 0xAAE JUMPI PUSH1 0x0 DUP5 DUP5 ADD MSTORE JUMPDEST POP POP POP POP JUMP JUMPDEST PUSH1 0x0 PUSH1 0x2 DUP3 DIV SWAP1 POP PUSH1 0x1 DUP3 AND DUP1 PUSH2 0xACC JUMPI PUSH1 0x7F DUP3 AND SWAP2 POP JUMPDEST PUSH1 0x20 DUP3 LT DUP2 EQ ISZERO PUSH2 0xAE0 JUMPI PUSH2 0xADF PUSH2 0xB8F JUMP JUMPDEST JUMPDEST POP SWAP2 SWAP1 POP JUMP JUMPDEST PUSH2 0xAEF DUP3 PUSH2 0xC5F JUMP JUMPDEST DUP2 ADD DUP2 DUP2 LT PUSH8 0xFFFFFFFFFFFFFFFF DUP3 GT OR ISZERO PUSH2 0xB0E JUMPI PUSH2 0xB0D PUSH2 0xC1C JUMP JUMPDEST JUMPDEST DUP1 PUSH1 0x40 MSTORE POP POP POP JUMP JUMPDEST PUSH1 0x0 PUSH2 0xB22 DUP3 PUSH2 0xA68 JUMP JUMPDEST SWAP2 POP PUSH32 0xFFFFFFFFFFFFFFFFFFFFFFFFFFFFFFFFFFFFFFFFFFFFFFFFFFFFFFFFFFFFFFFF DUP3 EQ ISZERO PUSH2 0xB55 JUMPI PUSH2 0xB54 PUSH2 0xB60 JUMP JUMPDEST JUMPDEST PUSH1 0x1 DUP3 ADD SWAP1 POP SWAP2 SWAP1 POP JUMP JUMPDEST PUSH32 0x4E487B7100000000000000000000000000000000000000000000000000000000 PUSH1 0x0 MSTORE PUSH1 0x11 PUSH1 0x4 MSTORE PUSH1 0x24 PUSH1 0x0 REVERT JUMPDEST PUSH32 0x4E487B7100000000000000000000000000000000000000000000000000000000 PUSH1 0x0 MSTORE PUSH1 0x22 PUSH1 0x4 MSTORE PUSH1 0x24 PUSH1 0x0 REVERT JUMPDEST PUSH32 0x4E487B7100000000000000000000000000000000000000000000000000000000 PUSH1 0x0 MSTORE PUSH1 0x31 PUSH1 0x4 MSTORE PUSH1 0x24 PUSH1 0x0 REVERT JUMPDEST PUSH32 0x4E487B7100000000000000000000000000000000000000000000000000000000 PUSH1 0x0 MSTORE PUSH1 0x32 PUSH1 0x4 MSTORE PUSH1 0x24 PUSH1 0x0 REVERT JUMPDEST PUSH32 0x4E487B7100000000000000000000000000000000000000000000000000000000 PUSH1 0x0 MSTORE PUSH1 0x41 PUSH1 0x4 MSTORE PUSH1 0x24 PUSH1 0x0 REVERT JUMPDEST PUSH1 0x0 DUP1 REVERT JUMPDEST PUSH1 0x0 DUP1 REVERT JUMPDEST PUSH1 0x0 DUP1 REVERT JUMPDEST PUSH1 0x0 DUP1 REVERT JUMPDEST PUSH1 0x0 PUSH1 0x1F NOT PUSH1 0x1F DUP4 ADD AND SWAP1 POP SWAP2 SWAP1 POP JUMP JUMPDEST PUSH32 0x7461736B206E6F7420666F756E64000000000000000000000000000000000000 PUSH1 0x0 DUP3 ADD MSTORE POP JUMP JUMPDEST PUSH32 0x63616E6E6F7420637261746520616E6F74686572207461736B20776974682073 PUSH1 0x0 DUP3 ADD MSTORE PUSH32 0x616D65206E616D65210000000000000000000000000000000000000000000000 PUSH1 0x20 DUP3 ADD MSTORE POP JUMP INVALID LOG2 PUSH5 0x6970667358 0x22 SLT KECCAK256 0xDC 0x48 0xAB 0xF9 PC SWAP15 GAS GAS XOR SWAP12 EXP 0x23 0xC2 0xCC MSTORE8 0x27 LOG1 DUP15 SLOAD SDIV LOG4 0x4A 0xD1 JUMP 0x5D DUP2 EQ SWAP5 CALLDATACOPY DUP7 0x2D 0xC9 PUSH5 0x736F6C6343 STOP ADDMOD MOD STOP CALLER "
		},
		"gasEstimates": {
			"creation": {
				"codeDepositCost": "671600",
				"executionCost": "702",
				"totalCost": "672302"
			},
			"external": {
				"arrayLength()": "2489",
				"createTask(string)": "infinite",
				"deleteTask(string)": "infinite",
				"readTask(string)": "infinite"
			},
			"internal": {
				"_findIndex(string memory)": "infinite"
			}
		},
		"methodIdentifiers": {
			"arrayLength()": "e554482e",
			"createTask(string)": "111002aa",
			"deleteTask(string)": "859c9186",
			"readTask(string)": "18e88f01"
		}
	},
	"abi": [
		{
			"inputs": [],
			"name": "arrayLength",
			"outputs": [
				{
					"internalType": "uint256",
					"name": "",
					"type": "uint256"
				}
			],
			"stateMutability": "view",
			"type": "function"
		},
		{
			"inputs": [
				{
					"internalType": "string",
					"name": "_name",
					"type": "string"
				}
			],
			"name": "createTask",
			"outputs": [],
			"stateMutability": "nonpayable",
			"type": "function"
		},
		{
			"inputs": [
				{
					"internalType": "string",
					"name": "_name",
					"type": "string"
				}
			],
			"name": "deleteTask",
			"outputs": [],
			"stateMutability": "nonpayable",
			"type": "function"
		},
		{
			"inputs": [
				{
					"internalType": "string",
					"name": "_name",
					"type": "string"
				}
			],
			"name": "readTask",
			"outputs": [
				{
					"internalType": "uint256",
					"name": "",
					"type": "uint256"
				},
				{
					"internalType": "string",
					"name": "",
					"type": "string"
				}
			],
			"stateMutability": "view",
			"type": "function"
		}
	]
}